:020000040000FA
:02000000F52FDA
:1001880001344434013083129F00013083169F00EC
:1001980008000A30F9200B300A210B301B21080017
:1001A8000D30F9200E300A210F301B2108001030C5
:1001B800F92011300A2110301B2108000F30F920D6
:1001C8000E300A210E301B210800F6001030F920ED
:1001D80076080A2110301B21080064008001840A77
:1001E8000406031900340406F228F50075088D2367
:1001F800831285100830F400C930F300F30B02298C
:10020800F40B02290729831285140800F5007508E4
:100218008D23831205120830F400C930F300F30B64
:100228001329F40B13291829831205160800F50061
:1002380075088D23831285120830F400C930F30045
:10024800F30B2429F40B2429292983128516080085
:10025800FC00FB017C1C3129322936297908FA0077
:100268007A08FB070310F90D0310FC0C7C08031D2A
:100278003E293F292E297B0808008312071487147A
:100288000715871507168716051485100512851298
:100298000330F2008A30F1005530F000F00B52299B
:1002A800F10B5229F20B522959298312851405168C
:1002B80085160800F20008307202031C64296529BB
:1002C80066298129813083129F007208F00001306D
:1002D8000310F00DFF3E031D6C290310700DF10093
:1002E80071089F040430F100E430F000F00B7A2923
:1002F800F10B7A29000083129F1408000130831241
:10030800A0000030A100A201A30183122208493EE7
:100318008400831300082007A00021080318210A7D
:10032800A1000130A2070318A30A0030A30723087D
:10033800803AFF0080307F02031DA4290230220288
:10034800031CA729A82989290230F0000030F100F0
:1003580083122108F3002008F200F1217108FA0045
:100368007008F90008008312A4000A30F000003079
:10037800F1002408A000A1012008F2002108F300E0
:10038800F12170088312A2002208A500250803198C
:10039800CE29CF29D2292508F920D4291030F920CF
:1003A800F6308312A0002008F9002408A100A20159
:1003B8002108F2002208F3000A30F0000030F100B2
:1003C800F12170082C2183122407A3002308A5001B
:1003D80025080A210C301B210800F601F11FF52918
:1003E800F629FD29F009F109F00A0319F10AF601C5
:1003F800F60AF31F002A012A0A2AF209F309F20A67
:100408000319F30A0130F4007408F606F701F8013D
:10041800700871040319112A122A492AF501F50AEC
:10042800202A01300310F00DF10DFF3E031D162A9E
:100438000130F4007408F507F11F232A242A152A2D
:1004480001300310F70DF80DFF3E031D252A710832
:100458007302031D312A70087202031C342A352ADC
:100468003C2A7008F2027108031CF303F3027714A4
:1004780001300310F10CF00CFF3E031D3D2A013042
:10048800F502031D482A492A242A760803194D2A09
:100498004E2A532AF709F809F70A0319F80A7808BF
:1004A800F1007708F0000800031083123C0D3D0DA1
:1004B800BE003E08C4004408031D632A642A6D2A4E
:1004C8000030BD000030BC000030BB000030BA0076
:1004D800D22A3A08BE003B08BF003C08C0003D08CD
:1004E800C1001F300310C10CC00CBF0CBE0CFF3E76
:1004F800031D762A3E08C2004208C300BC17FF301D
:10050800BA05FF30BB05FF30BC050030BD0596308D
:10051800C402C41F902A912AAB2A4408803A973E05
:100528000318972A982A992A642A01300310BD0CC7
:10053800BC0CBB0CBA0CFF3E031D9A2A0130BE004E
:100548003E08C407031DA92AAA2A992AC22A2030CC
:100558004402031CB02AB12ABD2A642A0130BE0015
:100568000310BA0DBB0DBC0DBD0DBE0BB42A013076
:10057800C4024408031DC12AC22AB22A4308031927
:10058800C62AC72AD22ABA09BB09BC09BD09BA0AB0
:100598000319BB0A0319BC0A0319BD0A0800F800AD
:1005A80078080319D82AD92AED2AF31FDC2ADD2A6C
:1005B800ED2A7009FA007109FB007209FC00730941
:1005C800FD00FA0A0319FB0A0319FC0A0319FD0ABC
:1005D800F52A7308FD007208FC007108FB0070081A
:1005E800FA007308720471047004031DFC2AFD2AC2
:1005F800062B0030F3000030F2000030F10000302C
:10060800F0008C2B9630F4007408F900182B013098
:10061800F4007408F90701300310FD0CFC0CFB0C06
:10062800FA0CFF3E031D102BFE307D05031D1D2B0C
:100638001E2B0B2B3A2B0130F4007408F9070130FC
:10064800FA07003003180130FB07003003180130A7
:10065800FC07003003180130FD0701300310FD0CC2
:10066800FC0CFB0CFA0CFF3E031D322BFF307D0502
:10067800031D3F2B402B1F2B4C2B0130F90201305F
:10068800F4000310FA0DFB0DFC0DFD0DF40B452BCA
:10069800FC1B4F2B502B562B023079020318552B7D
:1006A800562B412B7918592B5A2B622BFF30FA0500
:1006B800FF30FB057F30FC05FF30FD050310F90C0A
:1006C8007908F400F501F601F70118300310F40D6C
:1006D800F50DF60DF70DFF3E031D6A2B7408FA049D
:1006E8007508FB047608FC047708FD0478080319EC
:1006F8007E2B7F2B842BF31F822B832B842BFD17C0
:100708007D08F3007C08F2007B08F1007A08F0000D
:100718000800F2003A2C831207108710071187117E
:100728000712871205107A2C8312071087100711F9
:1007380087110712871205147A2C8312071487145D
:10074800071587150716871605107A2C83120710C8
:100758008714071587110712871205107A2C831240
:1007680007148714071187150716871205147A2CA2
:1007780083120714871407158715071287120514A3
:100788007A2C83120710871407158711071287160A
:1007980005147A2C8312071487100715871507127A
:1007A800871605147A2C83120714871007158715E6
:1007B8000716871605147A2C831207148714071551
:1007C80087110712871205107A2C831207148714D1
:1007D800071587150716871605147A2C8312071430
:1007E8008714071587150712871605147A2C8312A4
:1007F80007148714071587110716871605147A2C0E
:100808008312071087140715871507168712051412
:100818007A2C831207148714071187110712871679
:1008280005147A2C831207108710071587110716ED
:10083800871605147A2C8312071087100715871559
:100848000716871205147A2C8312071087100711D0
:1008580087150716871605147A2C83120714871034
:10086800071187150716871605147A2C7208F000E9
:10087800F1017108003A0319422C312C7008003A32
:100888000319A12B013A0319AA2B033A0319B32B15
:10089800013A0319BC2B073A0319C52B013A03196E
:1008A800CE2B033A0319D72B013A0319E02B0F3A41
:1008B8000319E92B013A0319F22B033A0319FB2B0D
:1008C800013A0319042C073A03190D2C013A0319AC
:1008D800162C033A03191F2C013A0319282C1F3A26
:1008E80003198F2B013A0319982B312C0800043077
:1008F800831691000730831299000C308316850007
:100908008701C62041218312C8014930C500480823
:10091800493E84004508831380000130C50045081E
:10092800C80702304802031C9A2C9B2C892C533090
:1009380083125402031CA12CA22CC52C4C08803A0B
:10094800FF0080307F02031DAB2C53304B0203188D
:10095800AE2CAF2CB12CE220582D83124C08803AD3
:10096800FF0080307F02031DBB2CA6304B0203180A
:10097800BE2CBF2CC12CD420582D83125608B72169
:10098800582D25305402031CCA2CCB2C382D520369
:10099800031DCF2CD02CD92C851DD32CD42CD72C8F
:1009A8005608B721582DDB20582D4C08803AFF00F7
:1009B80080307F02031DE22C53304B020318E52CD4
:1009C800E62CF72C4430831254020318EC2CED2C3F
:1009D800F02C5608B721582D851DF32CF42CD72C54
:1009E8005608B721582D83124C08803AFF008030F2
:1009F8007F02031D012DA6304B020318042D052D7F
:100A0800152D44308312540203180B2D0C2D0E2D76
:100A1800CD20582D851D112D122DD72C5608B72104
:100A2800582D37308312540203181B2D1C2D1F2DEF
:100A38000330E920582D403054020318242D252D69
:100A4800282D0230E920582D4430540203182D2D4A
:100A58002E2D312D0130E920582D851D342D352DB1
:100A6800D72C5608B721582D0A30540203183D2DAB
:100A78003E2D562D4C08803AFF0080307F02031D22
:100A8800472D7D304B0203184A2D4B2D522D123025
:100A9800F92012300A2112301B21582D83125608D2
:100AA800B721582D5608B72183124C08803AFF0009
:100AB80080307F02031D622DFB304B020318652D29
:100AC800662D702D83124B08013ECB004C0803188D
:100AD800013E003ECC00732D8312CB01CC014D08A2
:100AE8004E04031D782D792D882D5503031D7D2D6A
:100AF8007E2D882D02305E218312D501822179084E
:100B08008312C5004508D4009F1C8B2D8C2D8D2D7C
:100B1800052E5508031D912D922D052E1E08C50082
:100B2800C6014508C600C50183161E08831245077D
:100B3800F0000030031801304607F100F201F11B04
:100B4800F2037208F3000130D32273088312A7005E
:100B58007208A6007108A5007008A4004030A30020
:100B68000330A2001230A1006F30A0001D268312AE
:100B78002308BD002208BC002108BB002008BA00D9
:100B8800582283123A08C7004708D600560854026C
:100B98000318CF2DD02DEA2D0130C5004508D10707
:100BA80004305102031CD92DDA2DFC2DD201D20AB2
:100BB8005608C5005308493E840045088313800041
:100BC8000130C5004508D307D101FC2D5408560251
:100BD8000318EF2DF02DE82D0130C5004508D10789
:100BE80004305102031CF92DFA2DFC2DD201DC2D05
:100BF80002305306031D012E022E032ED301D50108
:100C0800D50A0130CD070318CE0A0030CE074E08AA
:100C1800803AFF0080307F02031D142EFB304D0206
:100C2800031C172E182E9B2C8312CD01CE019B2C52
:100C38000028831227088039A8002808B10027084F
:100C4800A8002807A9002908B800A61F2C2E2D2EB9
:100C58002E2E381438080319322E332E432E380A14
:100C6800031D372E382E402E0030A7000030A60076
:100C78000030A5000030A400A617A7014B2E0030B5
:100C8800A7000030A6000030A5000030A40023080B
:100C98008039A8002808B1062308A8002807A90059
:100CA8002908B900A21F592E5A2E5B2E391439086B
:100CB80003195F2E602E702E390A031D642E652ECF
:100CC8006D2E0030A3000030A2000030A1000030DB
:100CD800A000A217A301782E0030A3000030A200C4
:100CE8000030A1000030A0002308220421042004C1
:100CF800031D7F2E802E992E0030A7000030A600FD
:100D08000030A5000030A4008030A6047F30A7047E
:100D18003108A8002808A7042708A3002608A2006D
:100D28002508A1002408A000F42F3808031D9D2ED3
:100D38009E2EA72E0030A3000030A2000030A10094
:100D48000030A000F42F3808A800A9012908AB003A
:100D580039082802AA00031CAB032A087F3EB20008
:100D68002B080318013E003EB3002708B0002608F0
:100D7800AF002508AE002408AD000030A700003001
:100D8800A6000030A5000030A4000030B7000030F5
:100D9800B6000030B5000030B400B9011D2F390885
:100DA8000319D72ED82EF82E0130A8000310AD0D48
:100DB800AE0DAF0DB00DA80BDA2E0130A800031050
:100DC800A40DA50DA60DA70DA80BE32EB71FED2E9C
:100DD800EE2EEF2E24140130A8000310B40DB50D2B
:100DE800B60DB70DA80BF12E23083002031D062FF0
:100DF80022082F02031D062F21082E02031D062F8D
:100E080020082D02031C092F0A2F192F3717200835
:100E1800AD022108031C210FAE022208031C220F79
:100E2800AF022308031C230FB0020130A8002808D2
:100E3800B9071A303902031C222F232FD32E30086A
:100E48002F042E042D0403192A2F2B2F4A2F341474
:100E58004A2F0130A8000310A40DA50DA60DA70D5B
:100E6800A80B2F2FB71F392F3A2F3B2F24140130EF
:100E7800A8000310B40DB50DB60DB70DA80B3D2F86
:100E8800FF30B2070318B30AFF30B307A61F4D2F70
:100E98004E2F2D2FB901B71F522F532F6F2FFF3011
:100EA8003405A800FF303505A900FF303605AA0033
:100EB8007F303705AB002B082A04290428040319BE
:100EC800662F672F6A2FB901B90A6F2F241C6D2F5F
:100ED8006E2F6F2F672F39080319732F742FA52FC3
:100EE8000130A407003003180130A50700300318AB
:100EF8000130A607003003180130A707271C852FEB
:100F0800862FA52F2408A8002508A9002608AA00CE
:100F18002708AB000130AC002B0DAB0CAA0CA90CB8
:100F2800A80CAC0B902F2B08A7002A08A6002908AC
:100F3800A5002808A4000130B2070318B30A00303E
:100F4800B3073308803AFF0080307F02031DAE2FBD
:100F5800FF303202031CB12FB22FBF2FFF30831294
:100F6800B2000030B3000030A7000030A600003007
:100F7800A5000030A40083123308803AFF008030B7
:100F88007F02031DC92F013032020318CC2FCD2F49
:100F9800D92F8312B201B3010030A7000030A60098
:100FA8000030A5000030A400B10183123208A80067
:100FB8002808B800381CE12FE22FE42FA617E82FE5
:100FC8007F30A8002808A6053808A8000310280CB8
:100FD800A9002908A7003108A8002808A704902E0E
:100FE8000800C420D500C520D600831349308400EA
:080FF8005530F12083017B2C30
:02400E00D4F0EC
:00000001FF
